:020000040800F2
:10000000800600202902000841090008F5020008C6
:100010003D090008E5020008910A00080000000000
:100020000000000000000000000000004909000876
:10003000F102000800000000450900084D09000811
:10004000430200084302000843020008430200087C
:10005000430200084302000843020008430200086C
:10006000430200084302000843020008430200085C
:10007000430200084302000843020008430200084C
:10008000E9020008ED0200084302000843020008EC
:10009000430200084302000843020008430200082C
:1000A000430200084302000843020008430200081C
:1000B000430200084302000843020008FD02000852
:1000C000F902000843020008430200084302000846
:1000D00043020008430200084302000843020008EC
:1000E00043020008430200084302000843020008DC
:1000F00043020008430200084302000843020008CC
:1001000043020008430200084302000843020008BB
:1001100043020008430200084302000843020008AB
:10012000430200084302000843020008430200089B
:10013000430200084302000843020008430200088B
:10014000430200084302000843020008430200087B
:10015000430200084302000843020008430200086B
:10016000430200084302000843020008430200085B
:100170004302000843020008430200080000000098
:10018000430200084302000800F002F800F03CF8C7
:100190000AA090E8000C82448344AAF10107DA45E2
:1001A00001D100F031F8AFF2090EBAE80F0013F0F8
:1001B000010F18BFFB1A43F001031847F8100000A5
:1001C00018110000103A24BF78C878C1FAD8520735
:1001D00024BF30C830C144BF04680C6070470000C1
:1001E0000023002400250026103A28BF78C1FBD840
:1001F000520728BF30C148BF0B6070471FB501F0E0
:100200003CF81FBD10B510BD00F031F81146FFF7E6
:10021000F5FF00F0F1FF00F04FF803B4FFF7F2FF35
:1002200003BC00F057F80000094880470948004720
:10023000FEE7FEE7FEE7FEE7FEE7FEE7FEE7FEE796
:10024000FEE7FEE704480549054A064B70470000F3
:100250007D0A000889010008800000208006002037
:10026000800200208002002070477047704775466A
:1002700000F02CF8AE4605006946534620F0070012
:10028000854618B020B5FFF7DDFFBDE820404FF0F0
:1002900000064FF000074FF000084FF0000BAC468F
:1002A000ACE8C009ACE8C009ACE8C009ACE8C009DA
:1002B00021F007018D46704710B50446AFF300806A
:1002C0002046BDE81040FFF7A8BF00000048704777
:1002D0000800002001491820ABBEFEE726000200FE
:1002E00070470000FEE7000000F0ECBC00F00EBD1F
:1002F00070470000FEE7000000F0B0BD00F0F4BD64
:1003000010B511F5803F1BD146F20041C4F2020145
:10031000884269D046F20001C4F20201884240F0EE
:10032000C38043F61000C4F20200016841F40011DA
:100330000160016821F400110160002010BD00BFC0
:1003400041F2AC22C0F60002525C46F2000E135895
:10035000C4F2020E23F001037045135008BF0029B8
:1003600050D00EF5806C604508BF00294ED0704516
:1003700008BF01294ED0604508BF01294ED0704505
:1003800008BF02294ED0604508BF02294ED07045F3
:1003900008BF03294ED0604508BF03294ED07045E1
:1003A00008BF04294ED0604508BF04294ED07045CF
:1003B00008BF05294ED0604508BF05294ED07045BD
:1003C00008BF06294ED0604508BF06294ED080EAF6
:1003D0000E0C81F007040EF5976354EA0C0408BF75
:1003E0000EF1B80344E000BF43F61000C4F202006F
:1003F000016841F480010160016821F4800101601D
:10040000002010BD0EF1100332E000BF0EF5826334
:100410002EE000BF0EF128032AE000BF0EF5856331
:1004200026E000BF0EF1400322E000BF0EF5886316
:100430001EE000BF0EF158031AE000BF0EF58B63FB
:1004400016E000BF0EF1700312E000BF0EF58E63E0
:100450000EE000BF0EF188030AE000BF0EF59163C5
:1004600006E000BF0EF1A00302E000BF0EF59463AA
:1004700000241C605C609C60DC601C6121245C6169
:10048000835823F06063835081B1013906290BD86A
:10049000DFE801F00410161C20262C004FF47461D4
:1004A0008160002010BD00BF012010BD3F21816090
:1004B000002010BD4FF47C118160002010BD00BFF2
:1004C0004FF074618160002010BD00BF3F21C1600A
:1004D000002010BD4FF47461C160002010BD00BF4A
:1004E0004FF47C11C160002010BD00BF4FF074615B
:1004F000C160002010BD00002DE9F04F0E6896FA93
:10050000A6F2B2FA82F236FA02F365D04FF0010891
:100510004FF0030C0CE000BFD1E900630768AB406B
:1005200007EA0A073B430360013236FA02F353D06D
:1005300008FA02F316EA0304F6D0D1F804E0AEF1AB
:100540000103022B1CD294FAA4F5B5FA85F6D0F873
:1005500008907500D1E902AB0CFA05F329EA03090A
:100560000AFA05F747EA0907876047686FEA030A4E
:1005700027EA04090BFB04F747EA0907476008E08C
:1005800094FAA4F3B3FA83F675000CFA05F36FEA54
:10059000030A0F69C368AF4003EA0A033B43BEF195
:1005A000020FC360B8D1E3B2240AD1F814E094FA80
:1005B000A4F4002B08BFB4FA84F64FF0200308BF60
:1005C0002423C458B6000F27B740BC430EFA06F7E1
:1005D0002743C750A0E700BF0020BDE8F08F000010
:1005E00045F20041C4F20001884213D045F60041B3
:1005F000C4F20001884213D045F60001C4F20001A4
:1006000088421CBF012070476FF480004FF48001C6
:100610000AE000BF6FF400104FF4001104E000BFC7
:100620006FF400004FF4000143F62002C4F202020E
:10063000136819431160116808401060002070476A
:10064000F0B585B0044600680D4620F0010020603A
:1006500001A800F07BF8DDF80CE04DF68361C4F2F0
:100660001B31AEFB0113D5E9012C6168980C21F018
:100670003F0141EA93414FF496766160704344F63E
:10068000D356216AC1F26206A0FB060621F03F00A4
:1006900048F2A061C0F201014F1CB609BA4238BF4E
:1006A0009E0C731C18438A4220620FD91920BCF19A
:1006B000000F08BF03205043BEFBF0F0010508BF48
:1006C000012040EA0C0040F4004007E05000BEFB6F
:1006D000F0F040F6FC71084208BF0420E1694CF6D6
:1006E000FF7291430843E06105F10C0328680ECBCB
:1006F000A76848F2FF36B74319433943A160216820
:1007000021F01A0108432060206840F001002060B9
:10071000206820F4806040EA02010020216005B0DA
:10072000F0BD000044F6D351C1F26201A0FB01010B
:100730004FF0FF3000EB91104EF21001CEF20001AD
:1007400048600020886005200860704780B543F647
:10075000040EC4F2020EDEF8042002F00C0342F292
:100760000042082BC0F2F40206D0042B22D141F241
:100770000022C0F27A021DE0DEF80030DEF800C090
:100780005B0241F20023C0F27A0358BF13460CF01B
:100790003F0CDEF80020B3FBFCFCDEF80030C2F3B7
:1007A000881202FB0CFCC3F30143022202EB43025A
:1007B000BCFBF2F20260DEF8043041F29421C3F394
:1007C0000313C0F60001C95C41F2A42322FA01F12F
:1007D0004160DEF80420C0F60003C2F382229A5C76
:1007E00021FA02F28260DEF80420C2F342329A5CFF
:1007F000D140C16080BD000040F20001C2F20001A2
:10080000086070472DE9F04188B0002643F63000BB
:10081000CDE90566CDE90366C4F202000168002453
:1008200041F0100101600168C4F2020401F01001FE
:1008300007910799016801AD41F004010160016869
:100840004FF6FF7801F0040107910799016803272B
:1008500041F020010160016801F020010791079932
:10086000016841F080010160016801F08001079199
:100870000799016841F001010160016801F001017F
:1008800007910799016841F002010160016801F0D8
:10089000020107910799016841F040010160016878
:1008A00001F0400107910799016841F008010160DA
:1008B0000068294600F008000790079804F580506A
:1008C000CDF8048002970596FFF716FE43F6FF70F9
:1008D000CDE9010704F5006029460596FFF70CFEF7
:1008E00004F5A0502946CDE901870596FFF704FEDF
:1008F00049F6FF70CDE90107204629460596FFF726
:10090000FBFD4FF6FF40CDE9010704F58060294665
:100910000596FFF7F1FD04F5C0502946CDE90187A2
:100920000596FFF7E9FD04F540602946CDE901870A
:100930000596FFF7E1FD08B0BDE8F081FEE7000095
:10094000FEE700007047000070470000704700009D
:1009500010B543F60000C4F20200D0F800140522DE
:1009600062F30201C0F80014D0F8001401F007018E
:10097000052911D0D0F8001401F0070105290BD08A
:10098000D0F8001401F00701052905D0D0F80014B3
:1009900001F007010529E7D147F20001C4F2000187
:1009A0000A6842F480420A60016841F480310160C3
:1009B0000168890309D4016889035CBF01685FEAA3
:1009C000813102D401688903F2D5016848F200023E
:1009D00041F4002101604168CFF6BF72114045F239
:1009E0000842C0F2400211434160416821F44031A5
:1009F0004160016841F0807101600168890109D49A
:100A0000016889015CBF01685FEA811102D4016855
:100A10008901F2D58168052221F0F00181608168A9
:100A200062F38C2181608168042262F34F3181601E
:100A30008168022262F30101816000BF816801F0D8
:100A40000C0108290ED0816801F00C01082909D099
:100A5000816801F00C01082904D0816801F00C01C3
:100A60000829EBD147F60024C0F603242046FFF7FF
:100A700059FE2046BDE81040FFF7BEBE4EF6885036
:100A8000CEF20000016841F470010160704700007F
:100A9000FEE700002DE9F04387B043F63000C4F2D2
:100AA0000200016845F2004441F002010160016862
:100AB000C4F2000401F0020101910199016804F5FA
:100AC000D83541F400110160016801AE01F4001154
:100AD0000191019901694FF0010941F4001101618F
:100AE00000694FF0000800F4001001900198022006
:100AF000029004200690032003904FF48070019030
:100B000028463146CDF81090CDF81480FFF7F4FC5C
:100B10004FF40070019028463146FFF7EDFC46F295
:100B20008806C4F20206A6F1880528460521FFF7CB
:100B3000E7FB306804F1100769F35B6030603068F0
:100B4000062120F0C0003060306869F31140306049
:100B5000306820F490703060306820F400703060AD
:100B6000306840F480603060306820F4C0503060FD
:100B7000306820F4C0403060706920F0040070617B
:100B80002846B760FFF7BCFBB0694EF2001269F36C
:100B90005B60B061B069CEF2000269F38710B061AA
:100BA000B0694FF0004369F31140B061B06920F4BF
:100BB0009070B061B06920F40070B061B06940F429
:100BC0008060B061B06920F4C050B061B06920F4B9
:100BD000C040B061F06A20F00400F0624EF60C50A4
:100BE0003762CEF2000001684EF21141CEF20001F0
:100BF00081F80E801360036881F80F80C2F80490BA
:100C000003684FF4803382F81083136000684FF458
:100C1000003081F8008010602046FFF7E1FCE068BA
:100C200001A920F0FE00E060E06820F00100E06033
:100C3000206820F040002060206840F080002060A4
:100C400041F68020C0F20600CDE902084FF4806032
:100C500005904FF4804006902046CDF81080CDF8E6
:100C60000480FFF7EDFC206840F00100206007B031
:100C7000BDE8F08341F2040140F20003CEF200012E
:100C8000C2F200030A68D3F800C04DF68363C4F2D1
:100C90001B33ACFB033C4FEA9C43584309E000BFC5
:100CA0000B689B1A834228BF70470B689B1A8342CC
:100CB00007D20B689B1A834203D20B689B1A8342AC
:100CC000EED3704746F28800C4F20200016821F0BA
:100CD0001001016040F26800C2F2000006210170BC
:100CE00045F20441C4F2000151F8042C42F40072B0
:100CF00041F8042C0A6822F400620A600A6822F4AF
:100D000080720A60002141707047000046F2A00125
:100D1000C4F20201086840F2680C20F0100008607C
:100D2000C2F2000C9CF80200002845F20440C4F214
:100D3000000039D14BF2E013CFF6FF73026952077E
:100D40005CBF02695FEA026215D4A3B1026952076F
:100D500011D4026912065CBF02695FEA42720AD4CA
:100D6000026912065CBF02695FEA427203D402693B
:100D700004331206E2D59CF80020032A14D1002285
:100D80008CF805209CF80320012A23D101218CF83E
:100D90000010016841F40071016050F8041C41F436
:100DA000807140F8041C704706218CF8001050F840
:100DB000041C41F4007140F8041C016821F4006136
:100DC0000160016821F48071016000208CF801004D
:100DD000704700BF04228CF80020DCF80C30BCF80F
:100DE00010C00A6822F001020A600A68D20709D01E
:100DF0000A68D2071CBF0A685FEAC27202D00A689A
:100E0000D207F2D1026822F400620260CB604A6825
:100E10004FF6FF739A4362444A604FF4001241F860
:100E2000942C4FF4801241F8942C4FF4002241F896
:100E3000942C4FF4802241F8942C4FF4803241F8E6
:100E4000942C0A6842F010020A600A6842F001021B
:100E50000A60016841F4006101607047B0B545F275
:100E60001444C4F20004206840F268058005C2F210
:100E700000055CBF20685FEAC05005D50220A8705D
:100E800000F036F9002068702068400558BFB0BDFA
:100E90000520A8702878022818D154F8140C40F4C2
:100EA000007044F8140C54F8100C20F4007044F84E
:100EB000100C54F8100C20F4807044F8100C002032
:100EC0006870206820F480602060B0BD46F2A00009
:100ED000C4F20200016821F001010160206820F4E1
:100EE00080602060B0BD000081B045F20440C4F2D3
:100EF00000000169C90705D1016989071AD401B049
:100F0000704700BF40F26801C2F20001CA780AB11E
:100F10004A791AB10A7922F0010202E00A7942F014
:100F20000102C36862F307030222C3600A70016909
:100F30008907E4D5016821F40071016040F268017D
:100F4000C2F200014A79002A4CD046F2A0020323E3
:100F5000C4F202020B7091F80AC0136823F0010377
:100F600013601368DB0709D01368DB071CBF136825
:100F70005FEAC37302D01368DB07F2D1036806315E
:100F800023F400630360D16051684FF6FF73994307
:100F9000614451604FF4001142F8941C4FF48011E9
:100FA00042F8941C4FF4002142F8941C4FF4802125
:100FB00042F8941C4FF4803142F8941C116841F0BF
:100FC00010011160116841F001011160016841F4E4
:100FD00000610160016900910099406900900098EA
:100FE00001B07047CA789AB1CA78012AF2D10522B5
:100FF0000A700B8A50F8042C022B29D342F4806229
:1010000040F8042C026842F48052026024E000BFE1
:1010100046F2A0020423C4F202020B70CB68B1F8BE
:1010200010C0116821F0010111601168C90709D0D1
:101030001168C9071CBF11685FEAC17102D011684D
:10104000C907F2D1016821F400610160D3609BE718
:1010500022F4806240F8042C46F2A002C4F202029C
:10106000CB68B1F810C052F8181C21F0010142F809
:10107000181C52F8181CC9070CD052F8181CC907C4
:101080001CBF52F8181C5FEAC17103D052F8181C3B
:10109000C907EED1016821F40061016042F80C3CFF
:1010A00052F8141C4FF6FF739943614442F8141C24
:1010B0004FF4006142F8941C4FF4806142F8941C94
:1010C0004FF4007142F8941C4FF4807142F8941C64
:1010D000402142F8941C52F8181C41F0100142F8CB
:1010E000181C52F8181C41F0010142F8181C6DE759
:1010F0002DE9F04186B045F20040C4F200000168DD
:1011000040F2184621F0010101600021C4F20206FC
:101110004FF480774FF40078012205913760C6F8CC
:101120000080CDE90321032100F5D8346D460291FA
:101130002046294601920097FFF7DEF9204629460E
:10114000CDF80080FFF7D8F94FF080740A203460A2
:10115000FFF790FD0A203760FFF78CFD0A2034600E
:10116000FFF788FD0A203760FFF784FD0A2034600E
:10117000FFF780FD0A203760FFF77CFD0A2034600E
:10118000FFF778FD0A203760FFF774FD0A2034600E
:10119000FFF770FD0A203760FFF76CFD0A2034600E
:1011A000FFF768FD0A203760FFF764FD0A2034600E
:1011B000FFF760FD0A203760FFF75CFD0A2034600E
:1011C000FFF758FD0A203760FFF754FD0A2034600E
:1011D000FFF750FD0A203760FFF74CFD0A2034600E
:1011E000FFF748FD0A203760FFF744FDFFF752FC88
:1011F00006B0BDE8F081000082B043F64000C4F2C2
:10120000020041684FF6FF0241F4804141604168AD
:101210004FF0FF3301F4804100910099016841F0E3
:1012200080510160006800F08050019001984EF6F6
:101230000C50CEF200000168114040F20032C0F2C2
:10124000FA52114301600168C1F3022181F00702E3
:10125000042A28BF0422033903FA02F238BF00210E
:10126000D24302FA01F10901C175FFF771FBFFF7E3
:10127000C9FAFFF70FFC00BFFEE7F1EE100A4FF6C8
:10128000FF71C0F2C03120EA010040F04070E1EE91
:10129000100A704700000000000000000102030473
:1012A0000607080900000000010203041028405846
:1012B0007088A0B8D81200080000002008000000C4
:1012C000C4010008E01200080800002078060000B1
:1012D000E0010008000000000024F400000000000D
:040000050800018965
:00000001FF
