:020000040800F2
:1000000008090020F9010008FD010008FF010008AF
:1000100001020008030200080502000800000000B9
:1000200000000000000000000000000007020008BF
:1000300009020008000000000B0200081916000861
:100040001B1600081D1600081F16000821160008C0
:100050002316000825160008271600082916000890
:100060002B1600082D1600082F1600083116000860
:100070003316000835160008371600083916000830
:100080003B1600083D1600083F1600084116000800
:1000900043160008451600084716000849160008D0
:1000A0004B1600084D1600084F16000851160008A0
:1000B0005316000855160008571600085916000870
:1000C0005B1600085D1600085F1600086116000840
:1000D0006316000865160008671600086916000810
:1000E000FD160008171700081917000800F002F89D
:1000F00000F03AF80AA090E8000C82448344AAF188
:100100000107DA4501D100F02FF8AFF2090EBAE885
:100110000F0013F0010F18BFFB1A43F0010318473B
:100120003039000050390000103A24BF78C878C137
:10013000FAD8520724BF30C830C144BF04680C60ED
:10014000704700000023002400250026103A28BF35
:1001500078C1FBD8520728BF30C148BF0B60704739
:100160001FB51FBD10B510BD03F01FFC1146FFF7F2
:10017000F7FF01F07DF903F03DFC03B4FFF7F2FF58
:1001800003BC03F041FC000030BF704720BF704744
:1001900040BF7047BFF36F8F7047BFF34F8F7047FB
:1001A000BFF35F8F704701DF7047EFF31480704734
:1001B00080F31488BFF36F8F7047EFF309807047A7
:1001C00080F309887047EFF30880704780F3088850
:1001D000704772B6704762B6704771B6704761B6C5
:1001E000704780F311887047EFF31280704740BA70
:1001F000704700BA7047000008480047FEE7FEE776
:10020000FEE7FEE7FEE7FEE7FEE7FEE7FEE7FEE7C6
:1002100003480449024A044B70470000ED000008FF
:1002200008010020080900200801002070B502F034
:1002300059FA4FF4803002F07CFA02F0B9FA06461F
:10024000012E38D1102003F033F8022003F01AF801
:10025000002002F0F3FA002002F002FBB00202F0EC
:10026000F6FA4FF4E011300402F0CBFA012002F06C
:10027000D4FA00BF392002F07FFA0028FAD0022019
:1002800002F0CEFA00BF02F0D4FA0828FBD1002514
:1002900040F67D000543002444F4802444F4804467
:1002A00044F0C0540121284602F091FB0121204670
:1002B00002F09AFB01E000BFFEE770BD10B54FF4FD
:1002C00040608F490880012088701020C8708D48D8
:1002D00002F021FE4FF40040894908800120887017
:1002E0001020C870874802F016FE4FF480508449F1
:1002F00008800420C870834802F00DFE0420804965
:1003000008801020C870022088707F4802F003FE29
:100310004FF460407A490880032088701820C87024
:100320007A4802F0F8FD4FF480507549088010209B
:10033000C87003208870754802F0EDFD4FF48060AE
:100340006F490880012088701820C8706F4802F03B
:10035000E2FD4FF400606A4908800420C8706B48D1
:1003600002F0D9FD10BD10B5044628206849087078
:100370000020487088700846C47002F0D8FB10BD99
:100380001CB502F0EDFE02F08BFB00214FF0006087
:1003900002F07EFC4FF4C06002F0C3FB27205C49F2
:1003A000087001204870002088700120C87008463D
:1003B00002F0BDFB28205649087000204870887064
:1003C0000120C870084602F0B2FB0C21022002F0A6
:1003D0009EFE02F0C5FE4FF48050009000208DF884
:1003E00004000C208DF8050001208DF806006846F9
:1003F00002F0C4FE1CBD10B5464801F0D9FE4FF412
:10040000E1304549086000208880C8800881488123
:100410000C2088813F4801F0F7FE01213D4801F0A2
:1004200057FF012240F226613A4801F05DFF0122A8
:1004300040F22551374801F057FF10BD10B537483D
:1004400001F0B6FE4FF4E1303349086000208880A7
:10045000C880088148810C208881304801F0D4FE92
:1004600001212E4801F034FF012240F226612B4881
:1004700001F03AFF012240F22551284801F034FFF3
:1004800010BD00B585B00020ADF800004FF48270BB
:10049000ADF802000020ADF80400ADF80600ADF89C
:1004A00008004FF40070ADF80A000020ADF80C0011
:1004B000ADF80E000720ADF810006946184802F0AC
:1004C00028F80121164802F049F805B000BD0021C6
:1004D00007E0002200E0521C41F6A4739A42FAD3CE
:1004E000491C8142F5D37047002105E0002200E05D
:1004F000521C512AFCD3491C8142F7D3704700009B
:10050000000000200010014000140140000C0140D8
:100510000400002000380140140000200048004082
:100520000038004010B5044644BB0120FFF7CFFF60
:100530004FF40041E04802F09DFD4FF46040DF4978
:100540000880032088701020C870DD4802F0E3FCAA
:100550004FF46041DA4802F08DFD4FF48050D749E6
:1005600008801020C87003208870D54802F0D3FCA2
:100570004FF48051D24802F07BFD22E04FF400415D
:10058000CD4802F075FD0120FFF7A1FF4FF4604058
:10059000CA490880032088701820C870C84802F033
:1005A000BAFC4FF48050C54908801020C870032061
:1005B0008870C34802F0AFFC4FF48051C04802F08D
:1005C00057FD10BD70B504460D464FF48051BC4830
:1005D00002F050FD802040EA4400C4B22146B948F0
:1005E00001F0E1FF00BF0121B64802F02FF800281A
:1005F000F9D00121B34802F032F8B24801F0D5FF3A
:1006000028700121AF4802F02AF80021AD4801F01E
:10061000CAFF00BF0121AB4802F018F80028F9D04A
:100620000121A84802F01BF8A64801F0BEFF28707F
:100630004FF48051A24802F01BFD70BD70B5044616
:100640000D464FF480519E4802F014FD7F2000EAD1
:10065000440421469B4801F0A6FF00BF01219948B0
:1006600001F0F4FF0028F9D00121964801F0F7FFCE
:10067000944801F09AFF2946924801F094FF00BF88
:100680000121904801F0E2FF0028F9D001218D48B6
:1006900001F0E5FF8B4801F088FF4FF48051884856
:1006A00002F0E6FC70BDF8B506460C4615466946F4
:1006B0003046FFF787FF25B19DF8000020430090EA
:1006C00003E09DF80000A04300909DF80010304624
:1006D000FFF7B4FFF8BD2DE9F04105460E464FF493
:1006E0008051774802F0C6FC1221764801F05BFF8A
:1006F00000BF0121734801F0A9FF0028F9D071481B
:1007000001F053FFC7B2002411E0375D39466D4850
:1007100001F049FF00BF01216A4801F097FF00285E
:10072000F9D0684801F041FFC7B2601CC4B2AC42C6
:10073000EBDB4FF48051624802F09AFCBDE8F08197
:1007400070B506460D464FF480515D4802F092FCAC
:1007500092215C4801F027FF00BF0121594801F0B8
:1007600075FF0028F9D0574801F01FFF28700124B9
:1007700012E09221534801F016FF00BF01215148B9
:1007800001F064FF0028F9D04E4801F00EFF29194E
:1007900001F8010C601CC4B2B442EADB00214948F4
:1007A00001F001FF00BF0121464801F04FFF002882
:1007B000F9D0444801F0F9FE291901F8010C4FF471
:1007C00080513F4802F054FC70BD08B569460A20CC
:1007D000FFF7F8FE9DF8000000F07F0018B18021BF
:1007E0000A20FFF72BFF08BD10B54FF48061324897
:1007F00002F040FC4FF400612F4802F039FC4FF446
:1008000080512F4802F034FC0020FFF78BFE0120BE
:10081000FFF75DFE0120FFF785FE0120FFF757FE81
:1008200010BD70B504460D4604F18000C1B20F2022
:10083000FFF704FF29460F20FFF7C4FE70BD70B517
:1008400004460D4604F14000C1B20F20FFF7F6FE4A
:1008500005F1C000C1B20F20FFF7F0FE70BDF8B582
:1008600006460C46154669463046FFF7DAFF25B1C5
:100870009DF800002043009003E09DF80000A04395
:1008800000909DF800103046FFF7D9FFF8BD08B57D
:100890000F210120FFF7D2FE0120FFF718FE694665
:1008A0000120FFF78FFE9DF80000202801D10120D4
:1008B00008BD0020FCE700000010014000000020FF
:1008C000000C01400038004010B580210220FFF7E5
:1008D000B5FE80210320FFF7B1FE10BD10B5022147
:1008E0000120FFF7ACFF22210120FFF7A8FF012024
:1008F00010BD10B5FFF7E8FF21210120FFF79FFF92
:1009000008210120FFF79BFF04210320FFF797FF39
:1009100001210B20FFF793FF012010BD10B5082027
:10092000FD4908700D2048700C2088700D2048711A
:10093000084680780F280CDD052008710220C87059
:10094000084601798078401EC1EBC000F2498871E9
:100950001EE0F148807807280DDD0E20EE49087171
:100960000120C870084601798078401EC1EB001054
:10097000E94988710CE01F20E74908710020C87020
:10098000084601798078401EC1EB4010E249887129
:100990000821E148C17380790838C1B2DE4801748A
:1009A0000078DD4AD27800EB0210C1B20720FFF7D1
:1009B00046FFD94841780820FFF741FFD6488178A3
:1009C0000920FFF73CFFD44841790A20FFF737FFA1
:1009D000012010BD10B5044604F01F042146042078
:1009E000FFF72DFF012010BD70B504460D46A5424E
:1009F00002DA26462C46354604F03F010E20FFF76A
:100A00001EFFA1110F20FFF71AFF05F03F01102074
:100A1000FFF715FFA9111120FFF711FF012070BD8D
:100A2000F8B505460C46164669463720FFF7CAFD5D
:100A30009DF8000088280ED1012C00DD012404F06F
:100A4000010405F00705300100EBC4002844C1B2E1
:100A50000220FFF7F4FE9DF8000089280DD104F074
:100A60000F0405F0070505EB0610C1B20220FFF7E1
:100A7000E6FE21012720FFF7E1FD0120F8BD70B55A
:100A800004460D4604F0070405F07F0505F040001C
:100A900004EB60010520FFF7D2FE05F03F010620C0
:100AA000FFF7CDFE012070BD38B5044669460D2024
:100AB000FFF7B7FE9DF800008007000E2070694622
:100AC0000C20FFF7AEFE20789DF8001001F03F01EA
:100AD00008442070012038BD38B504460025694619
:100AE0001220FFF79EFEFF250EE00120FFF7FCFC21
:100AF00069461220FFF795FE9DF80000204008B1DE
:100B0000012038BD681EC5B2002DEEDC0020F8E7DC
:100B100070B5044601211C20FFF791FE042101203D
:100B2000FFF78DFE24210120FFF789FE0420FFF747
:100B3000D3FF0546002201211C20FFF790FE04216F
:100B40000120FFF77CFE2046FFF7AEFFFFF7C6FE51
:100B5000284670BD38B50024FFF7C0FE0020009085
:100B60004AE09DF800006C4948720846417A03202B
:100B7000FFF785FF0A21684841730146497B674AB0
:100B8000505CFFF727FF01220F210720FFF748FFE6
:100B900061480A30FFF7BCFF6148007888B161A066
:100BA00000F0C0FD0121684600F008FE62A000F0E0
:100BB000B9FD012158480A3000F000FE65A000F0A0
:100BC000B1FD5548807A38B95348407A20B162A0C7
:100BD00000F0A8FD012413E04F48807A38B94E4850
:100BE000407A20B964A000F09DFD002408E09DF843
:100BF0000000401CC0B200909DF800007F28B0DBD0
:100C000000BF204638BD38B50A214348417300244F
:100C10007DE14149497B414A505CFFF7DBFE002002
:100C2000009040E19DF800103B4881730246927BA2
:100C3000584B995C0246927B574B985C0022FFF719
:100C4000EFFE35480A30FFF763FF3548007888B17A
:100C500052A000F067FD0121684600F0AFFD36A00C
:100C600000F060FD01212C480A3000F0A7FD39A0FA
:100C700000F058FD2848817AC07B81424BDD264830
:100C8000817A007C814246DA2348807A083800283D
:100C9000F4DD2148807A08301F4989798842F2DAE8
:100CA0001D48807A0830C1B21B48C172807A08386A
:100CB000C1B2194801733DA000F034FD012116486E
:100CC0000A3000F07BFD41A000F02CFD012112480C
:100CD000801D00F073FD1FA000F024FD2FA000F088
:100CE00021FD01210C480E3000F068FD3EA000F00F
:100CF00019FD012108480D3000F060FD15A000F03D
:100D000011FD3CA000F00EFD012103480B3000F066
:100D100055FD42A094E0C1E04C000020163A0008C6
:100D2000080000202D3E20526566666572656E6380
:100D300065203D20000000003B204C7063642E4382
:100D4000616C6962726174696F6E2E56616C756553
:100D5000203D20000D0A000043616C696272612031
:100D60005265666572656E6365205375636365736E
:100D700073210D0A0000000043616C6962726120FA
:100D80005265666572656E6365204572726F722189
:100D90000D0A0000283A0008213A00082D3E2044A0
:100DA0007269766572203D20000000002D3E204CC7
:100DB0007063642E43616C6962726174696F6E2E38
:100DC00056616C7565203D20000000003B204C7092
:100DD00063642E46756C6C7363616C655F56616C01
:100DE0007565203D200000003B204761696E203D75
:100DF000200000002D3E204C7063642E43616C691E
:100E000062726174696F6E2E5468726573686F6C7C
:100E1000645F4D6178203D20000000003B204C7055
:100E200063642E43616C6962726174696F6E2E54E3
:100E300068726573686F6C645F4D696E203D200059
:100E400000F070FC0121FC4800F0B8FCAFF2FC009F
:100E500000F068FCF84A0C3AD17A107BFFF7C4FD29
:100E6000F6480078A8B113E0F348801EFFF750FE63
:100E7000F3A000F057FC0121EF48801E00F09EFC1B
:100E8000AFF2301000F04EFC4FF4FA70FFF71FFB8A
:100E9000EAE7F3A000F046FC012038BD9DF8000011
:100EA000401CC0B200909DF800000728FFF6BAAEC3
:100EB000E1480C38817A007C814210DDDE480C3834
:100EC000407B0B2800D125E0DB480C38407B401CE0
:100ED000C1B2D9480C384173E8A000F023FCD648D1
:100EE0000C38817AC07B81420FDAD3480C38407BC2
:100EF00000B90FE0D0480C38407B401EC1B2CE484C
:100F00000C384173E1A000F00DFC601CC4B20B2C46
:100F1000FFF67FAE00BFE1A000F004FC0020BCE7BC
:100F200038B5FFF7B4FC032000F0A2FF684601F0DB
:100F300019F90446002000F09BFF012C43D19DF8D5
:100F4000000000F0010000281ED0DBA000F0EAFB4A
:100F5000E0A000F0E7FB0221E14800F02FFCE1A057
:100F600000F0E0FBDE4880788100DD48C01C00F026
:100F700025FCDFA000F0D6FBD9488178153000F0C1
:100F80001DFCC1A000F0CEFB9DF8000000F00200A7
:100F900000281BD0D9A000F0C5FBDFA000F0C2FBE9
:100FA0000C21E04800F00AFCB7A000F0BBFBDEA07B
:100FB00000F0B8FB0821DB48213000F0FFFBB2A0B5
:100FC00000F0B0FB02E0DBA000F0ACFB204638BD37
:100FD00010B599480C38407C97490C39487208463E
:100FE000817C4173C17C8173D8A000F09BFB10BD54
:100FF00010B50446012C2CD1012280213920FFF7A5
:101000002EFC002202213C20FFF729FC00220721B0
:101010003D20FFF724FC002203213E20FFF71FFCA8
:1010200000213820FFF70AFB01211320FFF707FCFE
:1010300002211420FFF703FC00211520FFF7FFFB1E
:1010400018211620FFF7FBFB86213320FFF7F6FA65
:1010500013E000211320FFF7F2FB00211420FFF71B
:10106000EEFB00211520FFF7EAFB00211620FFF719
:10107000E6FB80213320FFF7E1FA012010BD10B517
:10108000FFF737FCFFF74AFC0020FFF7B1FFB5A0E0
:1010900000F048FBFFF722FCFFF75CFD04460CB9AB
:1010A000002010BDFFF7AFFD0446012C04D1B3A012
:1010B00000F038FB0120F4E7B6A000F033FBFFF7A7
:1010C00087FF0020EDE710B50420B84908605A48B2
:1010D0000C38007A00F0100008B1FFF7D0FF564836
:1010E0000C38007A00F00100002844D052480C3837
:1010F000C079083050490C398979884204DD4E485E
:101100000C388179C17207E04B480C38C07908303F
:10111000C1B249480C38C17247480C38C079083808
:10112000002808DD44480C38C0790838C1B242486C
:101130000C38017303E000213F480C380173AFF213
:101140004C3000F0EFFA01213B48401E00F036FB26
:10115000AFF2383000F0E6FA0121374800F02EFBFC
:1011600049A000F0DFFA344A0C3AD17A107BFFF73D
:101170003BFCFFF7D5FE304A0C3A927B8C4B995CD6
:101180002D4A0C3A927B8B4B985C0022FFF748FC6F
:1011900029480C38417A0320FFF771FC26490C39A5
:1011A000497B854A505CFFF715FCFFF78DFB00205B
:1011B00021490C39087204207C49091F086010BDC0
:1011C00010B51D480C38407A1B490C394874084644
:1011D000417B8174817BC17478A000F0A3FA10BDBB
:1011E00010B50446012C03D13021FFF728FB03E0A2
:1011F00010210120FFF723FB012010BD10B504468C
:10120000012C0BD1FFF7ECFF0020FFF78BF971A049
:1012100000F088FA0120FFF7A6F80BE00120FFF7A5
:1012200081F90020FFF7DCFF0020FFF79CF86FA09A
:1012300000F078FA10BD00005800002009000020DE
:101240002D3E204C7063642E43616C696272617440
:10125000696F6E2E56616C756532203D200000006E
:1012600043616C69627261204472697665722053D1
:10127000756363657373210D0A0000004761696E31
:101280005F496E6465782B2B0D0A00004761696E1B
:101290005F496E6465782D2D0D0A000043616C690D
:1012A00062726120447269766572204572726F7253
:1012B00020210D0A000000002D3E20545950455FAA
:1012C00041204361726420446574656374656421E0
:1012D0000D0A00002D3E2041545141203D200000C8
:1012E000600000203B20554944203D2000000000C4
:1012F0003B2053414B203D20000000002D3E205458
:101300005950455F422043617264204465746563AF
:10131000746564210D0A00002D3E20415451422085
:101320003D200000780000202D3E20554944203DFE
:10133000200000002D3E204E6F2043617264204447
:1013400065746563746564210D0A00002D3E2052AA
:101350006573746F72652053756363657373210DD4
:101360000A00000053746172742043616C696272F8
:101370006174696F6E210D0A0000000043616C69A1
:1013800062726174696F6E20537563636573732154
:101390000D0A000043616C6962726174696F6E20AE
:1013A0004572726F72210D0A000000001414014092
:1013B000283A0008213A0008163A00082D3E20423B
:1013C000616B636B75702053756363657373210D77
:1013D0000A0000004C504344204D6F646520456E68
:1013E0007465726564210D0A0D0A00004C50434477
:1013F000204D6F646520457869746564210D0A008D
:1014000010B5044621461220FFF70BFA0FA000F09A
:1014100089F90121204600F0D1F91048007A00F046
:10142000010058B10D48C01DFFF73EFB0CA000F0B5
:1014300079F901210948C01D00F0C0F9AFF2B810D8
:1014400000F070F9FFF74AFA10BD00002D3E204C65
:101450007063642E497271203D2000004C00002012
:101460003B204C7063642E56616C7565203D2000F6
:1014700008B5FEF7DBFEFEF721FFFEF7DFFFFFF703
:1014800000F8FEF77DFF2D4800F0E7F92CA000F0F2
:1014900049F932A000F046F9042039490860FFF705
:1014A000A3F969463720FFF78DF89DF800008828DA
:1014B00002D134A000F036F99DF80000892802D14D
:1014C00035A000F02FF939A000F02CF900F055F903
:1014D000012802D13E49087002E000203C49087012
:1014E0003CA000F01FF900F048F9012802D1424960
:1014F000087002E000204049087004202049091FBC
:101500000860FFF7BCFD012802D1FFF759FE01E09A
:1015100000BFFEE70120FFF771FE0EE00121002071
:1015200002F066F90020FFF769FE3448FFF768FF14
:10153000FFF7C9FD0120FFF761FEEFE73C00002047
:10154000464D31373532322C464D31373535302026
:101550004C5043442044454D4F0D0A0052656C6584
:101560006173652056657273696F6E2032375F3123
:1015700020323031372E30362E31360D0A00000041
:101580001414014049432056657273696F6E203D03
:10159000205630330D0A00004943205665727369A6
:1015A0006F6E203D205630332B0D0A004C70636463
:1015B00020446562756720496E666F20456E6162E2
:1015C0006C652C59206F72204E3F0D0A0000000000
:1015D000080000204C7063642044656275672054E5
:1015E00065737420456E61626C652C59206F7220A2
:1015F0004E3F0D0A000000000900002054000020AA
:10160000704700BFFEE700BFFEE700BFFEE700BF78
:10161000FEE77047704770477047704770477047E4
:101620007047704770477047704770477047704702
:1016300070477047704770477047704770477047F2
:1016400070477047704770477047704770477047E2
:1016500070477047704770477047704770477047D2
:10166000704770477047704710B540F226612B48AD
:1016700000F0FAFED0B140F22661284800F01AFFCF
:10168000274840882649098888420CDA244840883F
:10169000401C234948800846C0684988405C1F496F
:1016A000091D088002E001201D49087140F2255102
:1016B0001A4800F0D9FE00B340F22551174800F057
:1016C000F9FE174800891649C98888420CDA134880
:1016D000001D00881249C968114A128988541048AF
:1016E0000089401C0E4908810D4800890C49C988B1
:1016F000884202D101200A49887210BD10B54FF40A
:10170000805001F0A4FD28B1FEF790FD4FF4805009
:1017100001F0AEFD10BD704770470000004800406A
:101720003C00002010B50446204602F0A5F84F49C1
:1017300008800846008800B910BD4C48C4600020ED
:101740004A49488008710846C068007848490880BE
:1017500000BF464800790028FBD000BFECE700221C
:10176000424B1A811A46D080D16000229A7200BF83
:101770003E4A927A002AFBD0704708B51DE06946C0
:101780000120FFF7ECFF9DF800004E2803D09DF8E4
:1017900000006E2804D137A0FFF7C4FF002008BD69
:1017A0009DF80000592803D09DF80000792804D145
:1017B00032A0FFF7B7FF0120F1E7E0E718B50246D6
:1017C0002A4CC4F80CD0002044E0135C1B09274CC1
:1017D000E4682370254BDB681B780A2B07DA234B60
:1017E000DB681B783033214CE468237006E01F4B24
:1017F000DB681B7837331D4CE4682370135C03F0FF
:101800000F031A4CE4686370184BDB685B780A2B93
:1018100007DA164BDB685B783033144CE46863708E
:1018200006E0124BDB685B783733104CE46863707A
:1018300000230E4C23710223238000236380234660
:10184000DB681B780A4C238000BF084B1B79002BF8
:10185000FBD0401C8842B8D318BD002101804180D4
:10186000C180018181720171704700003C0000203D
:10187000044800403C2D204E0D0A00003C2D20590C
:101880000D0A000010B504462CB10122802112205F
:10189000FEF709FF04E0002280211220FEF703FF7B
:1018A00010BD10B504462CB1012280211320FEF793
:1018B000FAFE04E0002280211320FEF7F4FE10BDA2
:1018C00070B50646002400250FE040F29F6070438B
:1018D0000121C1EBC00001EB4401B0FBF1F54FF673
:1018E000FF70854200D204E0641C40F6FF70844221
:1018F000EBD300BFADB200220F212A20FEF7D3FEAA
:101900000122C4F307212A20FEF7CDFEE1B22B20ED
:10191000FEF794FE290A2C20FEF790FEE9B22D2056
:10192000FEF78CFE002070BD2DE9FC410446A67830
:101930000027B84600206071207120746074002177
:101940000120FEF77BFEFEF740FF20210B20FEF773
:1019500075FE00210320FEF771FE80210220FEF7B4
:101960006DFE7F210420FEF769FE80212A20FEF70C
:1019700065FE20780C2802D02078042803D1217835
:101980000120FEF75BFE20780E280ED13046A168BC
:10199000FEF7A1FE0026607840F080010D20FEF7E2
:1019A0004DFE21780120FEF749FEBBE06946042088
:1019B000FEF708FE9DF8000000F0010028B10121AB
:1019C0000420FEF73BFEF325ADE09DF8000000F09B
:1019D0000200D8B101A90620FEF7F4FD9DF804002D
:1019E0006074607C00F0080050B101A90E20FEF781
:1019F000E9FD9DF8040000F01F002074F52592E039
:101A0000F42502210420FEF719FE8CE09DF8000069
:101A100000F00400E8B1002E17DD202E0ADD2020A2
:101A2000A168FEF758FEA0682030A060A6F1200053
:101A3000C6B204E03046A168FEF74DFE002660788D
:101A400040F080010D20FEF7F9FD04210846FEF765
:101A5000F5FD9DF8000000F0080078B1B8F1010F25
:101A600008D12279E06881182020FEF769FE2079EC
:101A70002030207108210420FEF7E0FD9DF80000D1
:101A800000F0100040B120780E2805D1102104206C
:101A9000FEF7D4FD002546E09DF8000000F0200090
:101AA00068B320780C2802D02078082827D101A913
:101AB0000C20FEF787FD9DF8040000F00700607120
:101AC00001A90A20FEF77EFD9DF8040000F07F07C3
:101AD0002279E06881183846FEF732FE20793844D2
:101AE0002071E0782179884203D0E07808B1F425AC
:101AF00019E020210420FEF7A1FD002513E09DF848
:101B0000000000F0400068B140210420FEF796FD7F
:101B10002078042801D1002505E020780C2801D187
:101B20004FF0010842E700BF002280210D20FEF7A0
:101B3000BAFD00210120FEF781FD2846BDE8FC81A9
:101B400010B500211220FEF779FD00211320FEF7C9
:101B500075FD26212420FEF771FDF8212720FEF7D0
:101B60006DFD1F212820FEF769FD10210C20FEF7D6
:101B700065FD40212620FEF761FD84211820FEF737
:101B80005DFD012240211520FEF78DFD10BD10B531
:101B9000002208210846FEF786FD83211220FEF769
:101BA0004DFD83211320FEF749FD00211520FEF78E
:101BB00045FD26212420FEF741FD55211820FEF782
:101BC0003DFDF8212720FEF739FD3F212820FEF7B3
:101BD00035FD20212920FEF731FD10210C20FEF7D4
:101BE0002DFD48212620FEF729FD10BD10B588B037
:101BF00007A8039006A804900120FFF743FE0120E8
:101C0000FFF74FFE50200399087000200399487099
:101C100002208DF8060000208DF805008DF80700E1
:101C20000520FFF74DFE04208DF8040001A8FFF702
:101C30007BFE0446204608B010BD10B588B007A84A
:101C4000039006A804900020FFF71CFE0020FFF779
:101C500028FE52200399087001208DF80600072005
:101C60008DF8050002208DF807000120FFF728FEFF
:101C70000C208DF8040001A8FFF756FE044644B975
:101C80009DF80800022804D1FE48049909880180C3
:101C900000E0F424204608B010BD10B588B007A8B5
:101CA000039006A804900020FFF7ECFD0020FFF74A
:101CB000F8FD26200399087001208DF80600072002
:101CC0008DF8050002208DF807000120FFF7F8FDD0
:101CD0000C208DF8040001A8FFF726FE044644B945
:101CE0009DF80800022804D1E6480499098801807B
:101CF00000E0F424204608B010BD30B589B0044699
:101D000008A8039006A804900020FFF7BBFD002060
:101D1000FFF7C7FD022C02DDF22009B030BDDA4822
:101D2000005D0399087020200399487002208DF807
:101D3000060000208DF8050005208DF80700012021
:101D4000FFF7BEFD0C208DF8040001A8FFF7ECFDA5
:101D50000546012280210E20FEF7A5FC6DBB9DF8F3
:101D60000800052829D1C748C01C00EB840004994D
:101D700009680160C34812300499097901550F3888
:101D800010F82400012101EB8402BE49C91C895CC2
:101D90004840022101EB8402BA49C91C895C4840D1
:101DA000032101EB8402B749C91C895C4840B5494D
:101DB0001231095D484000B1F4252846ADE730B541
:101DC00089B0044607A8039006A804900120FFF7F5
:101DD00059FD0120FFF765FD022C02DDF22009B05C
:101DE00030BDA948005D03990870702003994870C0
:101DF000A448C01C10F8240003998870A000401C5F
:101E0000A049C91C085C0399C870A000801C9D49AA
:101E1000C91C085C03990871A000C01C9949C91C21
:101E2000085C0399487197481230005D03998871E6
:101E300007208DF8060000208DF8050001208DF8A0
:101E40000700FFF73DFD0C208DF8040001A8FFF707
:101E50006BFD05464DB99DF80800012805D1049891
:101E6000017888481530015500E0F4252846B6E78A
:101E700010B5044624B9002203211420FEF713FCF8
:101E8000012C09D1012211461420FEF70CFC00227E
:101E900002211420FEF707FC022C09D100220121A7
:101EA0001420FEF700FC012202211420FEF7FBFBA8
:101EB000032C04D1012203211420FEF7F4FB0A2095
:101EC000FEF705FB10BD70B56E48007800F0C0004D
:101ED00010B901206B4988706A48007800F0C00092
:101EE000402802D10220674988706648007800F0D7
:101EF000C000802802D103206249887000240FE0CE
:101F00002046FFF7FAFE05460DB1F42070BD2046CD
:101F1000FFF755FF05460DB1F420F7E7601CC4B28A
:101F200058488078A042EBDC2846EFE710B58AB02D
:101F300009A8039006A804900120FFF7A3FC012044
:101F4000FFF7AFFC05200399087000200399487043
:101F500008200399887003208DF8060000208DF872
:101F600005000C208DF807000120FFF7A9FC0C20CC
:101F70008DF8040001A8FFF7D7FC0446CCB99DF802
:101F800008000C2815D14149049802680A6042688B
:101F90004A60806888600846D1F80110C160014637
:101FA000D1F80610016101464A898282097B817558
:101FB00000E0F42420460AB010BD10B58AB009A88C
:101FC000039006A804900120FFF75CFC0120FFF7B6
:101FD00068FC052003990870002003994870039954
:101FE000887003208DF8060000208DF805000C2075
:101FF0008DF807000120FFF763FC0C208DF804002A
:1020000001A8FFF791FC0446CCB99DF808000C2804
:1020100015D11E49049802680A6042684A608068C7
:1020200088600846D1F80110C1600146D1F8061059
:10203000016101464A898282097B817500E0F424AE
:1020400020460AB010BD10B58AB007A8039006A8B4
:1020500004900120FFF716FC0120FFF722FC1D2051
:10206000039908700948007B039948700748407B32
:10207000039988700548807B0399C8700348C07B2A
:10208000039905E060000020353A00087800002040
:102090000871002003994871082003998871012074
:1020A0000399C8710399087209208DF80600002071
:1020B0008DF8050001208DF80700FFF701FC0C20CA
:1020C0008DF8040001A8FFF72FFC044664B99DF8C1
:1020D0000800364981F82900084690F82920173071
:1020E000049901F0E8FB00E0F42420460AB010BD9A
:1020F00010B58AB008A8029005A803900120FFF748
:10210000C1FB0120FFF7CDFB0020029908703620AB
:10211000029948700020029988700299C8700820BE
:102120000299087105208DF8020000208DF8010049
:102130000A208DF803000120FFF7C2FB0C208DF868
:1021400000006846FFF7F0FB04463CB9174921310F
:10215000039802680A604068486000E0F424204662
:102160000AB010BD70B5044600202070FFF7E8FCEF
:10217000FFF763FD05462DB9FFF7A5FE207840F077
:1021800001002070FFF703FDFFF7D0FE05463DB9C3
:10219000FFF759FFFFF7ACFF207840F002002070F6
:1021A000207808B1012070BD0020FCE778000020F5
:1021B00010B50446C548204478B1B0F5806F16D0FC
:1021C000B0F5744F1DD10121880300F01AFC0021E5
:1021D0004FF4804000F015FC14E00121480400F0A9
:1021E0001DFC00214FF4003000F018FC0AE0012132
:1021F000880400F013FC00214FF4802000F00EFC56
:1022000000E000BF00BF10BD2DE9F04385B00646D9
:102210000D460024A14600BF00BF348A4CF2FF00E7
:102220000440E888E9890843298A0843698A084301
:10223000A98A0843044334820024B4894EF6F3107B
:102240000440A88829890843A98908430443B48124
:102250000024B48A4FF6FF40044068890443B482E6
:1022600000BF684600F046FB9948864202D1DDF87F
:102270000C9001E0DDF8089009EBC90000EB0910B3
:1022800029688900B0FBF1F76420B7FBF0F0040186
:102290002009642101FB1078322000EB0810B0FB0C
:1022A000F1F000F00F000443348105B0BDE8F08385
:1022B0004FF41651016000218180C180018141816C
:1022C0000C2181810021C18101824182818270477C
:1022D00021B1828942F40052828104E082894DF664
:1022E000FF731A4082817047F0B503460024002630
:1022F00000250020C1F3421401F01F06012707FA50
:1023000006F51846012C01D10C3004E0022C01D155
:10231000103000E014301AB107682F43076002E064
:102320000768AF430760F0BD1AB1838A0B4383820D
:1023300002E0838A8B4383827047028A4FF6F073F0
:102340001A400282028A0A430282704782894FF24F
:10235000FF731A40828182890A438281704721B1CA
:10236000828942F00202828104E082894FF6FD7385
:102370001A4082817047028A4FF6DF731A40028248
:10238000028A0A430282704721B1028A42F48042E3
:10239000028204E0028A4BF6FF731A400282704701
:1023A000C1F308028280704701468888C0F30800A4
:1023B0007047818941F0010181817047028BD2B25F
:1023C0000283028B42EA012202837047028B02F4ED
:1023D0007F420283028B0A430283704721B1828AC3
:1023E00042F02002828204E0828A4FF6DF731A40B4
:1023F0008282704721B1828A42F01002828204E018
:10240000828A4FF6EF731A408282704721B1828A26
:1024100042F00802828204E0828A4FF6F7731A4083
:1024200082827047828A4FF6FB731A408282828AC8
:102430000A438282704721B1828A42F0020282827C
:1024400004E0828A4FF6FD731A408282704702468A
:10245000002013880B400BB1012000E000207047E2
:1024600002888A430280704770B502460B460024FA
:10247000002100250020C3F3421503F01F010126AF
:1024800006FA01F1012D02D19689314006E0022DB4
:1024900002D1168A314001E0968A31401C12012691
:1024A00006FA04F41688344011B10CB1012000E0A2
:1024B000002070BD10B5002200230A12012404FA86
:1024C00002F304889C43048010BD000000BCFFBFE1
:1024D0000038014010B504468148204460B1B0F591
:1024E000784F13D10121080300F08BFA00214FF43B
:1024F000805000F086FA0AE00121880300F08EFA8D
:1025000000214FF4804000F089FA00E000BF00BFD6
:1025100010BD10B50022028802F441520B884C888D
:1025200023438C882343CC8823430C8923434C8941
:1025300023438C892343CC8923431A4302800B8A8B
:10254000038210BD0021018041808180C180018112
:1025500041818181C18107210182704721B10288B7
:1025600042F04002028004E002884FF6BF731A4036
:102570000280704730B5002400230C110125A540CE
:10258000ABB21AB185881D43858002E085889D43E2
:10259000858030BD1AB183880B43838002E0838835
:1025A0008B438380704781817047014688897047DB
:1025B0004FF6FF62914204D0028842F4807202809A
:1025C00004E002884FF6FF631A400280704721B191
:1025D000828842F00402828004E082884FF6FB7316
:1025E0001A408280704702884FF2FF731A400280BF
:1025F00002880A4302807047018841F480510180BB
:10260000704721B1028842F40052028004E002883F
:102610004DF6FF731A4002807047024600200129E0
:1026200001D0108B00E0908A70470146088A7047FD
:10263000B1F5804F04D1028842F48042028004E068
:1026400002884BF6FF731A40028070470246002052
:1026500013890B400BB1012000E0002070472029B6
:1026600005D10289028842F04002028006E040293A
:1026700001D1028902E002898A4302817047F0B5E4
:102680000246002000240023002501F00F07012648
:10269000BE40B4B20B1101269E40B3B2968806EA42
:1026A00003051689264016B10DB1012000E0002077
:1026B000F0BD10B50022552905D10389038843F0E8
:1026C000400303800BE0562901D1038907E001F0A4
:1026D0000F040123A3409AB203899343038110BDE1
:1026E00000C8FFBF0020E349C860086114204861AA
:1026F00000208861C8610846006840F00100086059
:1027000008464068DC490840DA49486008460068E5
:10271000DA490840D74908600846006820F480205C
:1027200008600846406820F4FE0048600020886089
:102730007047D049096821F48031CE4A11601146B2
:10274000096821F480211160B0F5803F03D0B0F515
:10275000802F0ED106E0C749096841F48031C54A8F
:10276000116007E0C349096841F4A021C14A116022
:1027700000E000BF00BF704710B5014600220023F3
:1027800000204A11012A02D1BA4C236806E0022A2D
:1027900002D1B84C236A01E0B64C636A01F01F0213
:1027A000012494401C400CB1012000E0002010BD29
:1027B00000B500BF3120FFF7DFFFB1490870B14815
:1027C0000068401CAF490860AD48007820B9084651
:1027D0000068401C0028EDD13120FFF7CDFF08B183
:1027E000012000BD0020FCE701460020A14A10683E
:1027F00020F0F80040EAC10010607047A24908606C
:102800007047024600209B4B586820F47C1042EA37
:1028100001031843974B586070479B4908667047FF
:1028200001460020934A506820F00300084350609E
:1028300070479048406800F00C0070470146002047
:102840008C4A506820F0F000084350607047014601
:102850000020884A506820F4E060084350607047C8
:1028600001460020834A506820F4605040EAC100CD
:102870005060704729B17F4A527A02437D4B5A72A9
:1028800004E07C4A527A82437A4B5A7270477E49FE
:10289000D8310860704701460020764A506820F41D
:1028A00040400843506070470021724A2032117046
:1028B000704A82F82010012802D004280AD104E0CE
:1028C00001216C4A2032117005E00521694A20324D
:1028D000117000E000BF00BF70476C49086070478E
:1028E0006449096A0143634A116270476749443980
:1028F0000860704730B500210022002400235D4DA0
:102900006D6805F00C0121B1042905D0082923D1F7
:1029100005E05F4D056022E05D4D05601FE0554D0F
:102920006D6805F47012022505EB9242514D6D68F9
:1029300005F480341CB9574D554305600BE04D4DEF
:102940006D6805F400351DB1524D5543056002E038
:102950004F4D5543056002E04D4D056000BF00BF7F
:10296000444D6D6805F0F00109094B4D6B5C05683D
:10297000DD4045603F4D6D6805F4E061090A464D54
:102980006B5C4568DD4085603A4D6D6805F46051CB
:10299000C90A414D6B5C4568DD40C560354D6D68C9
:1029A00005F44041890B3D4D6B5CC568B5FBF3F503
:1029B000056130BD29B12F4A526902432D4B5A613E
:1029C00004E02C4A526982432A4B5A61704729B16C
:1029D000284A92690243274B9A6104E0254A92698A
:1029E0008243244B9A61704729B1224AD26902433B
:1029F000204BDA6104E01F4AD26982431D4BDA6141
:102A0000704729B11B4AD26802431A4BDA6004E0CE
:102A1000184AD2688243174BDA60704729B1154AC9
:102A200012690243134B1A6104E0124A126982438D
:102A3000104B1A61704715494039086070471249B8
:102A4000C86470470B49C87170470A48406A40F033
:102A5000807008494862704701460020054A926824
:102A60000A400AB1012000E0002070470149887245
:102A700070470000001002400000FFF8FFFFF6FE64
:102A80000C0000201000002000004242800442425E
:102A900000127A0000093D003B3A00084B3A00085A
:102AA0000020411EED4A11604A0DEC498039C1F801
:102AB0008420411E4FF0E022C2F880124A0DE849FE
:102AC0000A6000BF04E00022E64941F82020401CD3
:102AD0000B28F8D3704700204FF02061E24A1160C4
:102AE0000021121D1160E149121D11600021121D0B
:102AF0001160121D116000BF05E00022DA49143197
:102B000041F82020401C0328F7D30021D64A203268
:102B10001160491E121D1160121D1160121D1160FD
:102B20007047D2490143D04A083211607047F0B56E
:102B300000210022002300250F24C678002E35D066
:102B4000C94E0836366806F4E066C6F5E066310A16
:102B5000C1F10405CC40467806FA05F18678264096
:102B6000314309010678B607F60EB140BD4E07782D
:102B7000BF1056F827200678B607F70EFF2606FA8C
:102B800007F39A4319400A43B64E0778BF1046F838
:102B90002720067806F01F070126BE4007787F1120
:102BA000BF0007F1E027C7F800610BE0067806F0E8
:102BB0001F070126BE40A94F90F800C04FEA6C1CC9
:102BC00047F82C60F0BD0021017041708170C17028
:102BD000704710B5FDF7FDFA10BD10B5FDF7FBFA13
:102BE00010BD10B5FDF7F9FA10BD10B5FDF7F7FAF5
:102BF00010BD10B504462001FDF7F3FA10BD10B565
:102C0000FDF7F2FA10BD98480068C0F3093070472C
:102C100010B501460020002201F01F04012303FA31
:102C200004F28E4B80334C1153F8243013409342FE
:102C300001D1012000E0002010BD8D4908607047DF
:102C400000F01F0201219140854A121F431142F8F2
:102C50002310704784480068C0F30900704710B51E
:102C600001460020002201F01F04012303FA04F2B0
:102C70007B4B7C334C1153F824301340934201D1E9
:102C8000012000E0002010BD7748001F0068704759
:102C9000784A0A400243744B1B1D1A607047734800
:102CA000001D71490831086070477048401C6E492A
:102CB00008310860704739B16B4A0C321268024320
:102CC000694B0C331A6006E0674A0C321268824383
:102CD000654B0C331A60704710B5002200F01F04DA
:102CE000012303FA04F239B15F4B20331B6813430D
:102CF0005D4C2034236006E05B4B20331B6893431C
:102D0000594C2034236010BDF0B503460C461546DF
:102D10000020FF2200260021534F08373F6807F4A8
:102D2000E067C7F5E067390AC1F10400CA4004FA58
:102D300000F105EA02073943090103F0C0008009E8
:102D4000C3F30122D700B9404FEAC20CFF2707FAAC
:102D50000CF6454F143757F82070B743DFF808C119
:102D60000CF1140C4CF82070674657F820700F4394
:102D70004CF82070F0BD10B5024600200023002161
:102D8000910A01F00F01012404FA01F1364C2034BC
:102D9000246804EA01038B4201D1012000E00020F5
:102DA00010BD002100F01F012F4A126801238B4043
:102DB0001A432D4B1A60704710B5002100F01F0117
:102DC000294A12684B1E01249C402243264B1A605C
:102DD00010BD10B50246002000230021C2F383314C
:102DE000012404FA01F1204C2034246804EA010390
:102DF0008B4201D1012000E0002010BD30B501461A
:102E0000002000220023C1F38142C1F301531AB90B
:102E1000154C2834206811E0012A0CD1124C2434BE
:102E20002468DD0024FA05F0022B02D000F00F0028
:102E300004E0C0B202E00C4C2C34206830BD0146E6
:102E400000200022C1F380521AB9074B30331868B2
:102E500002E0054B343318687047000080E100E061
:102E600084E200E000E400E004ED00E00000FA0588
:102E700000EF00E080FFFF1F10B50446B449601A60
:102E80008C4220D006DCB348204450B1B0F5806FAE
:102E900034D10FE0B0F5806F1ED0B0F5006F2DD1AA
:102EA00023E001210420FFF7ACFD00210420FFF7FF
:102EB000A8FD24E001210820FFF7A3FD0021082040
:102EC000FFF79FFD1BE001211020FFF79AFD002175
:102ED0001020FFF796FD12E001212020FFF791FD61
:102EE00000212020FFF78DFD09E001214020FFF7A0
:102EF00088FD00214020FFF784FD00E000BF00BFF7
:102F000010BD10B501210846FFF77BFD002101200F
:102F1000FFF777FD10BD2DE9F041024600250026A0
:102F2000002000230024002791F803C00CF00F05B7
:102F300091F803C00CF0100CBCF1000F03D091F815
:102F400002C04CEA050591F800C0BCF1000F31D079
:102F5000146800202AE04FF0010C0CFA00F3B1F8DD
:102F600000C00CEA03069E421FD183004FF00F0CF5
:102F70000CFA03F7BC4305FA03FC4CEA040491F88D
:102F800003C0BCF1280F05D14FF0010C0CFA00FC76
:102F9000C2F814C091F803C0BCF1480F05D14FF03E
:102FA000010C0CFA00FCC2F810C0401C0828D2D357
:102FB00014600024B1F800C0BCF1FF0F34DD546888
:102FC00000202EE000F1080C4FF0010808FA0CF385
:102FD000B1F800C00CEA03069E4221D183004FF0F5
:102FE0000F0C0CFA03F7BC4305FA03FC4CEA04048B
:102FF00091F803C0BCF1280F05D100F1080C08FAC4
:103000000CF8C2F8148091F803C0BCF1480F07D146
:1030100000F1080C4FF0010808FA0CF8C2F8108013
:10302000401C0828CED35460BDE8F0814FF6FF71F4
:103030000180022181700421C17070470246002086
:1030400093680B400BB1012000E00020704701465F
:10305000886880B2704702460020D3680B400BB1ED
:10306000012000E0002070470146C86880B2704728
:1030700001617047416170470AB1016100E041613F
:103080007047C16070474FF480320A4382618161AA
:103090008261826982697047024600202E4B18685F
:1030A0004FF68073184040EA021008432A4B18601C
:1030B00070472A49C861704770B50B46002200244A
:1030C00000210025244E7168C0F3034582B200F44C
:1030D0000016B6F5001F02D121F0E0610AE000F40D
:1030E0008016B6F5801F04D1032606FA05F4A14325
:1030F00000E0914343B100F40016B6F5001F02D181
:1031000041EA024100E01143134E716070BD30B5D9
:1031100000228B071C0F0F2303FA04F20E4B083317
:103120008C1053F8243093430B4C08348D1044F822
:10313000253023468C1053F824308C07240F00FAD6
:1031400004F42343044C08348D1044F8253030BD7A
:103150000010014000F8FEBF0000014000002042C6
:10316000002045490860091D0860091D0860091D07
:103170000860424840491431086070478179C9B3FA
:1031800001793F4A1144D1F80014026811430279D1
:103190003B4B1A44C2F800143749083109680268E9
:1031A0009143354A08321160111D09680268914344
:1031B000314A0C321160417910290ED1111F096872
:1031C000026811432C4A08321160111D0968026817
:1031D0001143294A0C32116019E04179284A1144FF
:1031E000D1F80014026811434279254B1A44C2F801
:1031F00000140CE0FFE70179214A1144D1F80014D2
:103200000268914302791E4B1A44C2F800147047B9
:103210000021016001710C21417100218171704711
:103220001549103109680143134A10321160704783
:1032300001460020104A143212680A400AB10120E7
:1032400000E0002070470C491431086070470146C7
:1032500000200022084B1B6803EA0102064B1433CE
:103260001B680B4013B10AB1012000E00020704739
:10327000014914310860704700040140FFFF070056
:1032800000000140FD49096801F03801FB4A116066
:1032900011460968014311607047F849096821F037
:1032A0000801F64A11601146096801431160704730
:1032B000F249096821F01001F04A116011460968CD
:1032C000014311607047EE48EC494860ED484860A2
:1032D0007047EA48006940F08000E849086170479B
:1032E0000420E649C96801F0010109B101200EE09E
:1032F000E249C96801F0040109B1022007E0DF4991
:10330000C96801F0100109B1032000E004207047F2
:1033100008B500200090FF20009002E00098401EB9
:10332000009000980028F9D108BD70B50446042526
:10333000FFF7D6FF054605E0FFF7EAFFFFF7D0FFEE
:103340000546641E012D01D1002CF5D104B90525D7
:10335000284670BD70B50546042440F6FF70FFF79F
:10336000E4FF0446042C19D1C448006940F002006F
:10337000C249086108464561006940F040000861A3
:1033800040F6FF70FFF7D1FF0446012C06D0BB4882
:10339000006941F6FD710840B8490861204670BDDA
:1033A00010B5042440F6FF70FFF7BFFF0446042C5D
:1033B00018D1B248006940F00400B04908610846DD
:1033C000006940F04000086140F6FF70FFF7ADFF74
:1033D0000446012C06D0A948006941F6FB7108405B
:1033E000A6490861204610BD10B5042440F6FF70C0
:1033F000FFF79BFF0446042C3BD1A1489F498860FE
:10340000A04888600846006940F02000086108462E
:10341000006940F04000086140F6FF70FFF785FF4B
:103420000446042C1CD19548006941F6DF71084020
:10343000924908610846006940F010000861A52023
:10344000914908800F20FFF770FF0446012C10D02F
:103450008A48006941F6EF7108408849086108E030
:10346000012C06D08548006941F6EF710840834978
:103470000861204610BD70B505460E4604240F2095
:10348000FFF753FF0446042C25D17C48006940F027
:1034900001007A4908612E800F20FFF746FF04469D
:1034A000042C0FD1300C68800F20FFF73EFF04463C
:1034B000012C10D07148006941F6FE7108406F4937
:1034C000086108E0012C06D06C48006941F6FE71E5
:1034D00008406A490861204670BD70B505460E4631
:1034E00004240F20FFF721FF0446042C13D1634866
:1034F000006940F00100614908612E800F20FFF74C
:1035000014FF0446012C06D05C48006941F6FE71A8
:1035100008405A490861204670BD70B505460E4600
:1035200004240F20FFF701FF0446042C17D1544850
:1035300052498860534888600846006940F010008E
:1035400008612E800F20FFF7F0FE0446012C06D004
:103550004A48006941F6EF71084048490861204631
:1035600070BD2DE9F04704464FF6FF763746B0466A
:10357000B1460425E443E6B2C4F30727C4F3074881
:103580004FEA14690F20FFF7D0FE0546042D40D105
:103590003B483A4988603B4888600846006940F0EB
:1035A00010000861FF2E06D03748083006800F2033
:1035B000FFF7BBFE0546042D08D1FF2F06D0324889
:1035C0000A3007800F20FFF7B0FE0546042D0AD110
:1035D000B8F1FF0F07D02C480C30A0F800800F2066
:1035E000FFF7A3FE0546042D0AD1B9F1FF0F07D05E
:1035F00025480E30A0F800900F20FFF796FE0546F4
:10360000012D06D01D48006941F6EF7108401B49A5
:1036100008612846BDE8F08770B50546042440F6E9
:10362000FF70FFF782FE0446042C4AD11448134968
:103630008860144888600846006940F020000861EE
:103640000846006940F04000086140F6FF70FFF74F
:103650006CFE0446042C2BD10848006941F6DF714A
:103660000840064908610846006940F010000861FA
:1036700065B10020044908800BE0000000200240F2
:1036800023016745AB89EFCD00F8FF1FA520454911
:10369000088040F6FF70FFF748FE0446012C10D06A
:1036A0004148006941F6EF7108403F49086108E070
:1036B000012C06D03C48006941F6DF7108403A49C8
:1036C0000861204670BD2DE9F04107460D461646BB
:1036D0000424364834498860354888600F20FFF755
:1036E00024FE0446042C1AD12F48006940F0100033
:1036F0002D49086147EA0500304340F0F8002949A8
:10370000891C08800F20FFF710FE0446012C06D00C
:103710002548006941F6EF710840234908612046B9
:10372000BDE8F0812048C069800870471E48006AE3
:10373000704700201C49C96901F0020109B101204C
:1037400000E00020704700201749096801F02001BF
:1037500009B1012000E00020704729B1124A126926
:103760000243114B1A6104E00F4A126982430E4B67
:103770001A61704701460020012908D10A4AD2691E
:1037800002F001020AB1012008E0002006E0064A2A
:10379000D2680A400AB1012000E0002070470249C7
:1037A000C860704700F8FF1F0020024023016745F2
:1037B000AB89EFCD10B501210807FFF72FF90021E4
:1037C0004FF08050FFF72AF910BD28490862704772
:1037D00026490861704701460020254A106820F0FC
:1037E000E0000843106070472049A031086070472E
:1037F00070B505460E4600241D48046824F00304F5
:103800002C4304601B48006840F00400194908601C
:10381000012E02D1FCF7B8FC01E0FCF7B7FC70BD4B
:1038200010B51348006840F00400114908600846CC
:10383000006840F0020008600E48006840F0040094
:103840000C490860FCF7A0FC10BD01460020084AA6
:1038500052680A400AB1012000E000207047044984
:10386000096841EA8001024A1160704700000E4277
:103870000070004010ED00E010B5431C02E010F8AD
:10388000011B71B18107FAD14FF0013202C88C1AC5
:103890008C4314EAC211F9D0C01A0A0603D0C01E24
:1038A00010BDC01A10BD0A0401D0801E10BD09024F
:1038B000FCD0401E10BD032A40F2308010F0030CF3
:1038C00000F0158011F8013BBCF1020F624498BF73
:1038D00011F801CB00F8013B38BF11F8013BA2F110
:1038E000040298BF00F801CB38BF00F8013B11F08B
:1038F000030300F02880083AC0F0088051F8043B28
:10390000083A51F804CBA0E80810F5E7121D5CBF97
:1039100051F8043B40F8043BAFF30080D20724BFCA
:1039200011F8013B11F801CB48BF11F8012B24BF5E
:1039300000F8013B00F801CB48BF00F8012B7047AD
:1039400070477047704710B5203AC0F00B80B1E85F
:103950001850203AA0E81850B1E81850A0E81850C4
:10396000BFF4F5AF5FEA027C24BFB1E81850A0E8CD
:10397000185044BF18C918C0BDE810405FEA827CE7
:1039800024BF51F8043B40F8043B08BF7047D207FE
:1039900028BF31F8023B48BF11F8012B28BF20F89F
:1039A000023B48BF00F8012B7047754600F028F82D
:1039B000AE4605006946534620F00700854618B01C
:1039C00020B5FCF725FCBDE820404FF000064FF085
:1039D00000074FF000084FF0000B21F00701AC4644
:1039E000ACE8C009ACE8C009ACE8C009ACE8C00963
:1039F0008D4670470446AFF300802046FCF7BDFBC0
:103A000000487047A400002001491820ABBEFEE723
:103A100026000200704700020103070B0F13171B5B
:103A20001F01020304050607010406080A0C0F9390
:103A3000959793959793959793959700000000011C
:103A40000203040102030406070809020406080031
:103A5000703A00080000002014000000280100084F
:103A6000843A000814000020F40800004401000813
:103A70000000000000000000000000000000000046
:043A80000000000042
:04000005080001F9F5
:00000001FF
